{
  "contractName": "ETHSwap",
  "abi": [
    {
      "inputs": [
        {
          "internalType": "address",
          "name": "token",
          "type": "address"
        },
        {
          "internalType": "address",
          "name": "eth_usd",
          "type": "address"
        }
      ],
      "stateMutability": "nonpayable",
      "type": "constructor"
    },
    {
      "inputs": [],
      "name": "ETH_USD",
      "outputs": [
        {
          "internalType": "contract AggregatorV3Interface",
          "name": "",
          "type": "address"
        }
      ],
      "stateMutability": "view",
      "type": "function",
      "constant": true
    },
    {
      "inputs": [],
      "name": "swap",
      "outputs": [],
      "stateMutability": "payable",
      "type": "function",
      "payable": true
    },
    {
      "inputs": [],
      "name": "quote",
      "outputs": [
        {
          "internalType": "int256",
          "name": "",
          "type": "int256"
        }
      ],
      "stateMutability": "view",
      "type": "function",
      "constant": true
    }
  ],
  "bytecode": "0x60c060405234801561001057600080fd5b50604051610a3b380380610a3b83398181016040528101906100329190610140565b600073ffffffffffffffffffffffffffffffffffffffff168273ffffffffffffffffffffffffffffffffffffffff161415801561009c5750600073ffffffffffffffffffffffffffffffffffffffff168173ffffffffffffffffffffffffffffffffffffffff1614155b6100a557600080fd5b42608081815250508173ffffffffffffffffffffffffffffffffffffffff1660a08173ffffffffffffffffffffffffffffffffffffffff1660601b81525050806000806101000a81548173ffffffffffffffffffffffffffffffffffffffff021916908373ffffffffffffffffffffffffffffffffffffffff16021790555050506101ce565b60008151905061013a816101b7565b92915050565b60008060408385031215610157576101566101b2565b5b60006101658582860161012b565b92505060206101768582860161012b565b9150509250929050565b600061018b82610192565b9050919050565b600073ffffffffffffffffffffffffffffffffffffffff82169050919050565b600080fd5b6101c081610180565b81146101cb57600080fd5b50565b60805160a05160601c6108486101f360003960006101040152600050506108486000f3fe6080604052600436106100345760003560e01c80636260f55b146100395780638119c06514610064578063999b93af1461006e575b600080fd5b34801561004557600080fd5b5061004e610099565b60405161005b91906105ec565b60405180910390f35b61006c6100bd565b005b34801561007a57600080fd5b50610083610341565b6040516100909190610607565b60405180910390f35b60008054906101000a900473ffffffffffffffffffffffffffffffffffffffff1681565b60003411610100576040517f08c379a00000000000000000000000000000000000000000000000000000000081526004016100f790610622565b60405180910390fd5b60007f00000000000000000000000000000000000000000000000000000000000000009050600034905060008060009054906101000a900473ffffffffffffffffffffffffffffffffffffffff1673ffffffffffffffffffffffffffffffffffffffff1663feaf968c6040518163ffffffff1660e01b815260040160a06040518083038186803b15801561019357600080fd5b505afa1580156101a7573d6000803e3d6000fd5b505050506040513d601f19601f820116820180604052508101906101cb919061049d565b505050915050600081836101df9190610673565b9050808473ffffffffffffffffffffffffffffffffffffffff166370a08231306040518263ffffffff1660e01b815260040161021b919061059a565b60206040518083038186803b15801561023357600080fd5b505afa158015610247573d6000803e3d6000fd5b505050506040513d601f19601f8201168201806040525081019061026b9190610470565b116102ab576040517f08c379a00000000000000000000000000000000000000000000000000000000081526004016102a290610642565b60405180910390fd5b8373ffffffffffffffffffffffffffffffffffffffff166323b872dd3033846040518463ffffffff1660e01b81526004016102e8939291906105b5565b602060405180830381600087803b15801561030257600080fd5b505af1158015610316573d6000803e3d6000fd5b505050506040513d601f19601f8201168201806040525081019061033a9190610443565b5050505050565b60008060008054906101000a900473ffffffffffffffffffffffffffffffffffffffff1673ffffffffffffffffffffffffffffffffffffffff1663feaf968c6040518163ffffffff1660e01b815260040160a06040518083038186803b1580156103aa57600080fd5b505afa1580156103be573d6000803e3d6000fd5b505050506040513d601f19601f820116820180604052508101906103e2919061049d565b5050509150508091505090565b6000815190506103fe816107b6565b92915050565b600081519050610413816107cd565b92915050565b600081519050610428816107e4565b92915050565b60008151905061043d816107fb565b92915050565b6000602082840312156104595761045861075f565b5b6000610467848285016103ef565b91505092915050565b6000602082840312156104865761048561075f565b5b600061049484828501610419565b91505092915050565b600080600080600060a086880312156104b9576104b861075f565b5b60006104c78882890161042e565b95505060206104d888828901610404565b94505060406104e988828901610419565b93505060606104fa88828901610419565b925050608061050b8882890161042e565b9150509295509295909350565b610521816106a4565b82525050565b6105308161070c565b82525050565b61053f816106c2565b82525050565b6000610552601583610662565b915061055d82610764565b602082019050919050565b6000610575601183610662565b91506105808261078d565b602082019050919050565b610594816106ec565b82525050565b60006020820190506105af6000830184610518565b92915050565b60006060820190506105ca6000830186610518565b6105d76020830185610518565b6105e4604083018461058b565b949350505050565b60006020820190506106016000830184610527565b92915050565b600060208201905061061c6000830184610536565b92915050565b6000602082019050818103600083015261063b81610545565b9050919050565b6000602082019050818103600083015261065b81610568565b9050919050565b600082825260208201905092915050565b600061067e826106ec565b9150610689836106ec565b92508261069957610698610730565b5b828204905092915050565b60006106af826106cc565b9050919050565b60008115159050919050565b6000819050919050565b600073ffffffffffffffffffffffffffffffffffffffff82169050919050565b6000819050919050565b600069ffffffffffffffffffff82169050919050565b60006107178261071e565b9050919050565b6000610729826106cc565b9050919050565b7f4e487b7100000000000000000000000000000000000000000000000000000000600052601260045260246000fd5b600080fd5b7f4e65656420746f2073656e64206d6f7265204554480000000000000000000000600082015250565b7f4e6f7420656e6f75676820746f6b656e73000000000000000000000000000000600082015250565b6107bf816106b6565b81146107ca57600080fd5b50565b6107d6816106c2565b81146107e157600080fd5b50565b6107ed816106ec565b81146107f857600080fd5b50565b610804816106f6565b811461080f57600080fd5b5056fea2646970667358221220ef700e90af6832751e5937f0444c9ad61b43e8c3ac223db4c8343748695f38c064736f6c63430008060033",
  "immutableReferences": {
    "7": [
      {
        "length": 32,
        "start": 260
      }
    ]
  },
  "source": "// SPDX-License-Identifier: MIT\npragma solidity =0.8.6;\n\nimport \"@openzeppelin/contracts/token/ERC20/IERC20.sol\";\nimport \"@chainlink/contracts/src/v0.8/interfaces/AggregatorV3Interface.sol\";\n\ncontract ETHSwap {\n    uint256 private immutable _deployed;\n    address private immutable _token;\n\n    AggregatorV3Interface public ETH_USD;\n\n    constructor(address token, address eth_usd) {\n        require(token != address(0) && eth_usd != address(0));\n        _deployed = block.timestamp;\n        _token = token;\n        ETH_USD = AggregatorV3Interface(eth_usd);\n    }\n\n    function swap() external payable {\n        require(msg.value > 0, \"Need to send more ETH\");\n        IERC20 token = IERC20(_token);\n\n        uint256 amount = msg.value;\n        (, int256 ethPrice, , , ) = ETH_USD.latestRoundData();\n        uint256 usd_amount = amount / uint256(ethPrice);\n        require(\n            token.balanceOf(address(this)) > usd_amount,\n            \"Not enough tokens\"\n        );\n        token.transferFrom(address(this), msg.sender, usd_amount);\n    }\n\n    function quote() external view returns (int256) {\n        (, int256 ethPrice, , , ) = ETH_USD.latestRoundData();\n        return ethPrice;\n    }\n}\n",
  "sourcePath": "/home/lucascullen/GitHub/block52/token/contracts/ETHSwap.sol",
  "compiler": {
    "name": "solc",
    "version": "0.8.6+commit.11564f7e.Emscripten.clang"
  },
  "schemaVersion": "3.3.4",
  "updatedAt": "2021-08-08T02:30:26.558Z",
  "networkType": "ethereum",
  "devdoc": {
    "kind": "dev",
    "methods": {},
    "version": 1
  },
  "userdoc": {
    "kind": "user",
    "methods": {},
    "version": 1
  }
}