{
  "contractName": "Sale",
  "abi": [
    {
      "inputs": [
        {
          "internalType": "address",
          "name": "token",
          "type": "address"
        },
        {
          "internalType": "address",
          "name": "owner",
          "type": "address"
        },
        {
          "internalType": "address",
          "name": "eth_usd",
          "type": "address"
        }
      ],
      "stateMutability": "nonpayable",
      "type": "constructor"
    },
    {
      "inputs": [],
      "name": "buy",
      "outputs": [],
      "stateMutability": "payable",
      "type": "function"
    }
  ],
  "bytecode": "0x61010060405234801561001157600080fd5b50604051610562380380610562833981810160405281019061003391906101a9565b600073ffffffffffffffffffffffffffffffffffffffff168373ffffffffffffffffffffffffffffffffffffffff161415801561009d5750600073ffffffffffffffffffffffffffffffffffffffff168273ffffffffffffffffffffffffffffffffffffffff1614155b80156100d65750600073ffffffffffffffffffffffffffffffffffffffff168173ffffffffffffffffffffffffffffffffffffffff1614155b6100df57600080fd5b42608081815250508273ffffffffffffffffffffffffffffffffffffffff1660a08173ffffffffffffffffffffffffffffffffffffffff1660601b815250508173ffffffffffffffffffffffffffffffffffffffff1660c08173ffffffffffffffffffffffffffffffffffffffff1660601b815250508073ffffffffffffffffffffffffffffffffffffffff1660e08173ffffffffffffffffffffffffffffffffffffffff1660601b81525050505050610241565b6000815190506101a38161022a565b92915050565b6000806000606084860312156101be57600080fd5b60006101cc86828701610194565b93505060206101dd86828701610194565b92505060406101ee86828701610194565b9150509250925092565b60006102038261020a565b9050919050565b600073ffffffffffffffffffffffffffffffffffffffff82169050919050565b610233816101f8565b811461023e57600080fd5b50565b60805160a05160601c60c05160601c60e05160601c6102e761027b60003960005050600060b80152600060740152600050506102e76000f3fe60806040526004361061001e5760003560e01c8063a6f2ae3a14610023575b600080fd5b61002b61002d565b005b60003411610070576040517f08c379a000000000000000000000000000000000000000000000000000000000815260040161006790610221565b60405180910390fd5b60007f0000000000000000000000000000000000000000000000000000000000000000905060003490508173ffffffffffffffffffffffffffffffffffffffff166323b872dd7f000000000000000000000000000000000000000000000000000000000000000033846040518463ffffffff1660e01b81526004016100f7939291906101ea565b602060405180830381600087803b15801561011157600080fd5b505af1158015610125573d6000803e3d6000fd5b505050506040513d601f19601f820116820180604052508101906101499190610163565b505050565b60008151905061015d8161029a565b92915050565b60006020828403121561017557600080fd5b60006101838482850161014e565b91505092915050565b61019581610252565b82525050565b60006101a8601583610241565b91507f4e65656420746f2073656e64206d6f72652045544800000000000000000000006000830152602082019050919050565b6101e481610290565b82525050565b60006060820190506101ff600083018661018c565b61020c602083018561018c565b61021960408301846101db565b949350505050565b6000602082019050818103600083015261023a8161019b565b9050919050565b600082825260208201905092915050565b600061025d82610270565b9050919050565b60008115159050919050565b600073ffffffffffffffffffffffffffffffffffffffff82169050919050565b6000819050919050565b6102a381610264565b81146102ae57600080fd5b5056fea26469706673582212208bf03b2e074a9b3e2885e8b86ad88d14f75962ad04e4d7ea2015dda1c843e1ef64736f6c63430008000033",
  "immutableReferences": {
    "44": [
      {
        "length": 32,
        "start": 116
      }
    ],
    "46": [
      {
        "length": 32,
        "start": 184
      }
    ]
  },
  "source": "// SPDX-License-Identifier: MIT\npragma solidity =0.8.0;\n\nimport \"@openzeppelin/contracts/utils/math/SafeMath.sol\";\nimport \"@openzeppelin/contracts/token/ERC20/IERC20.sol\";\nimport \"@chainlink/contracts/src/v0.8/interfaces/AggregatorV3Interface.sol\";\n\ncontract Sale {\n\n  using SafeMath for uint256;\n  uint256 private immutable _deployed;\n  address private immutable _token;\n  address private immutable _owner;\n  address private immutable _eth_usd;\n\n  constructor(address token, address owner, address eth_usd) {\n    require(token != address(0) && owner != address(0) && eth_usd != address(0));\n    _deployed = block.timestamp;\n    _token = token;\n    _owner = owner;\n    _eth_usd = eth_usd;\n    //0x5f4eC3Df9cbd43714FE2740f5E3616155c5b8419\n  }\n\n  function buy() payable external {\n    require(msg.value > 0, \"Need to send more ETH\");\n    IERC20 token = IERC20(_token);\n    uint256 amount = msg.value;\n    token.transferFrom(_owner, msg.sender, amount);\n  }\n}",
  "sourcePath": "/home/lucascullen/GitHub/block52/token/contracts/Sale.sol",
  "compiler": {
    "name": "solc",
    "version": "0.8.0+commit.c7dfd78e.Emscripten.clang"
  },
  "schemaVersion": "3.3.4",
  "updatedAt": "2021-06-15T05:34:21.332Z",
  "networkType": "ethereum",
  "devdoc": {
    "kind": "dev",
    "methods": {},
    "version": 1
  },
  "userdoc": {
    "kind": "user",
    "methods": {},
    "version": 1
  }
}