{
  "contractName": "Sale",
  "abi": [
    {
      "inputs": [
        {
          "internalType": "address",
          "name": "token",
          "type": "address"
        },
        {
          "internalType": "address",
          "name": "eth_usd",
          "type": "address"
        }
      ],
      "stateMutability": "nonpayable",
      "type": "constructor"
    },
    {
      "inputs": [],
      "name": "buy",
      "outputs": [],
      "stateMutability": "payable",
      "type": "function"
    }
  ],
  "bytecode": "0x60e060405234801561001057600080fd5b5060405161067938038061067983398181016040528101906100329190610137565b600073ffffffffffffffffffffffffffffffffffffffff168273ffffffffffffffffffffffffffffffffffffffff161415801561009c5750600073ffffffffffffffffffffffffffffffffffffffff168173ffffffffffffffffffffffffffffffffffffffff1614155b6100a557600080fd5b42608081815250508173ffffffffffffffffffffffffffffffffffffffff1660a08173ffffffffffffffffffffffffffffffffffffffff1660601b815250508073ffffffffffffffffffffffffffffffffffffffff1660c08173ffffffffffffffffffffffffffffffffffffffff1660601b8152505050506101c5565b600081519050610131816101ae565b92915050565b6000806040838503121561014e5761014d6101a9565b5b600061015c85828601610122565b925050602061016d85828601610122565b9150509250929050565b600061018282610189565b9050919050565b600073ffffffffffffffffffffffffffffffffffffffff82169050919050565b600080fd5b6101b781610177565b81146101c257600080fd5b50565b60805160a05160601c60c05160601c6104866101f360003960005050600060740152600050506104866000f3fe60806040526004361061001e5760003560e01c8063a6f2ae3a14610023575b600080fd5b61002b61002d565b005b60003411610070576040517f08c379a000000000000000000000000000000000000000000000000000000000815260040161006790610332565b60405180910390fd5b60007f000000000000000000000000000000000000000000000000000000000000000090506000349050808273ffffffffffffffffffffffffffffffffffffffff166370a08231306040518263ffffffff1660e01b81526004016100d491906102e0565b60206040518083038186803b1580156100ec57600080fd5b505afa158015610100573d6000803e3d6000fd5b505050506040513d601f19601f82011682018060405250810190610124919061024f565b11610164576040517f08c379a000000000000000000000000000000000000000000000000000000000815260040161015b90610352565b60405180910390fd5b8173ffffffffffffffffffffffffffffffffffffffff166323b872dd3033846040518463ffffffff1660e01b81526004016101a1939291906102fb565b602060405180830381600087803b1580156101bb57600080fd5b505af11580156101cf573d6000803e3d6000fd5b505050506040513d601f19601f820116820180604052508101906101f39190610222565b505050565b60008151905061020781610422565b92915050565b60008151905061021c81610439565b92915050565b600060208284031215610238576102376103cb565b5b6000610246848285016101f8565b91505092915050565b600060208284031215610265576102646103cb565b5b60006102738482850161020d565b91505092915050565b61028581610383565b82525050565b6000610298601583610372565b91506102a3826103d0565b602082019050919050565b60006102bb601183610372565b91506102c6826103f9565b602082019050919050565b6102da816103c1565b82525050565b60006020820190506102f5600083018461027c565b92915050565b6000606082019050610310600083018661027c565b61031d602083018561027c565b61032a60408301846102d1565b949350505050565b6000602082019050818103600083015261034b8161028b565b9050919050565b6000602082019050818103600083015261036b816102ae565b9050919050565b600082825260208201905092915050565b600061038e826103a1565b9050919050565b60008115159050919050565b600073ffffffffffffffffffffffffffffffffffffffff82169050919050565b6000819050919050565b600080fd5b7f4e65656420746f2073656e64206d6f7265204554480000000000000000000000600082015250565b7f4e6f7420656e6f75676820746f6b656e73000000000000000000000000000000600082015250565b61042b81610395565b811461043657600080fd5b50565b610442816103c1565b811461044d57600080fd5b5056fea2646970667358221220b107e352a604b52e644097f93a86733d3a77aa18588af9b63eecd07dd9e74d8664736f6c63430008060033",
  "immutableReferences": {
    "40": [
      {
        "length": 32,
        "start": 116
      }
    ]
  },
  "source": "// SPDX-License-Identifier: MIT\npragma solidity =0.8.6;\n\nimport \"@openzeppelin/contracts/token/ERC20/IERC20.sol\";\nimport \"@chainlink/contracts/src/v0.8/interfaces/AggregatorV3Interface.sol\";\n\ncontract Sale {\n\n  uint256 private immutable _deployed;\n  address private immutable _token;\n  address private immutable _eth_usd;\n\n  constructor(address token, address eth_usd) {\n    require(token != address(0) && eth_usd != address(0));\n    _deployed = block.timestamp;\n    _token = token;\n    _eth_usd = eth_usd;\n    //0x5f4eC3Df9cbd43714FE2740f5E3616155c5b8419\n  }\n\n  function buy() payable external {\n    require(msg.value > 0, \"Need to send more ETH\");\n    IERC20 token = IERC20(_token);\n    \n    uint256 amount = msg.value;\n    require(token.balanceOf(address(this)) > amount, \"Not enough tokens\");\n    token.transferFrom(address(this), msg.sender, amount);\n  }\n}",
  "sourcePath": "/home/lucascullen/GitHub/block52/token/contracts/Sale.sol",
  "compiler": {
    "name": "solc",
    "version": "0.8.6+commit.11564f7e.Emscripten.clang"
  },
  "schemaVersion": "3.3.4",
  "updatedAt": "2021-06-28T01:39:10.772Z",
  "devdoc": {
    "kind": "dev",
    "methods": {},
    "version": 1
  },
  "userdoc": {
    "kind": "user",
    "methods": {},
    "version": 1
  }
}